{
  "contractName": "DistributorRole",
  "abi": [
    {
      "inputs": [],
      "payable": false,
      "stateMutability": "nonpayable",
      "type": "constructor"
    },
    {
      "anonymous": false,
      "inputs": [
        {
          "indexed": true,
          "name": "account",
          "type": "address"
        }
      ],
      "name": "DistrubuterAdded",
      "type": "event"
    },
    {
      "anonymous": false,
      "inputs": [
        {
          "indexed": true,
          "name": "account",
          "type": "address"
        }
      ],
      "name": "DistrubuterRemoved",
      "type": "event"
    },
    {
      "constant": true,
      "inputs": [
        {
          "name": "account",
          "type": "address"
        }
      ],
      "name": "isDistributor",
      "outputs": [
        {
          "name": "",
          "type": "bool"
        }
      ],
      "payable": false,
      "stateMutability": "view",
      "type": "function"
    },
    {
      "constant": false,
      "inputs": [
        {
          "name": "account",
          "type": "address"
        }
      ],
      "name": "addDistributor",
      "outputs": [],
      "payable": false,
      "stateMutability": "nonpayable",
      "type": "function"
    },
    {
      "constant": false,
      "inputs": [],
      "name": "renounceDistributor",
      "outputs": [],
      "payable": false,
      "stateMutability": "nonpayable",
      "type": "function"
    }
  ],
  "bytecode": "0x608060405234801561001057600080fd5b506100293361002e640100000000026401000000009004565b6101e5565b61004c6000826100926401000000000261033c176401000000009004565b8073ffffffffffffffffffffffffffffffffffffffff167f8749cdd4d127b1238c971d8fc87c7a6369186a122e9b7e35c82049adc59aba8f60405160405180910390a250565b600073ffffffffffffffffffffffffffffffffffffffff168173ffffffffffffffffffffffffffffffffffffffff16141515156100ce57600080fd5b6100e78282610151640100000000026401000000009004565b1515156100f357600080fd5b60018260000160008373ffffffffffffffffffffffffffffffffffffffff1673ffffffffffffffffffffffffffffffffffffffff16815260200190815260200160002060006101000a81548160ff0219169083151502179055505050565b60008073ffffffffffffffffffffffffffffffffffffffff168273ffffffffffffffffffffffffffffffffffffffff161415151561018e57600080fd5b8260000160008373ffffffffffffffffffffffffffffffffffffffff1673ffffffffffffffffffffffffffffffffffffffff16815260200190815260200160002060009054906101000a900460ff16905092915050565b610418806101f46000396000f300608060405260043610610057576000357c0100000000000000000000000000000000000000000000000000000000900463ffffffff168063644241db1461005c5780637250e224146100735780638f0c86fa146100b6575b600080fd5b34801561006857600080fd5b50610071610111565b005b34801561007f57600080fd5b506100b4600480360381019080803573ffffffffffffffffffffffffffffffffffffffff16906020019092919050505061011c565b005b3480156100c257600080fd5b506100f7600480360381019080803573ffffffffffffffffffffffffffffffffffffffff169060200190929190505050610143565b604051808215151515815260200191505060405180910390f35b61011a33610157565b565b6001151561012933610143565b151514151561013757600080fd5b610140816101a8565b50565b60006101506000836101f9565b9050919050565b61016260008261028d565b8073ffffffffffffffffffffffffffffffffffffffff167fa4b9580fd61ac86862e890737390ec4f9a436a007da00e79ef06520196c4393b60405160405180910390a250565b6101b360008261033c565b8073ffffffffffffffffffffffffffffffffffffffff167f8749cdd4d127b1238c971d8fc87c7a6369186a122e9b7e35c82049adc59aba8f60405160405180910390a250565b60008073ffffffffffffffffffffffffffffffffffffffff168273ffffffffffffffffffffffffffffffffffffffff161415151561023657600080fd5b8260000160008373ffffffffffffffffffffffffffffffffffffffff1673ffffffffffffffffffffffffffffffffffffffff16815260200190815260200160002060009054906101000a900460ff16905092915050565b600073ffffffffffffffffffffffffffffffffffffffff168173ffffffffffffffffffffffffffffffffffffffff16141515156102c957600080fd5b6102d382826101f9565b15156102de57600080fd5b60008260000160008373ffffffffffffffffffffffffffffffffffffffff1673ffffffffffffffffffffffffffffffffffffffff16815260200190815260200160002060006101000a81548160ff0219169083151502179055505050565b600073ffffffffffffffffffffffffffffffffffffffff168173ffffffffffffffffffffffffffffffffffffffff161415151561037857600080fd5b61038282826101f9565b15151561038e57600080fd5b60018260000160008373ffffffffffffffffffffffffffffffffffffffff1673ffffffffffffffffffffffffffffffffffffffff16815260200190815260200160002060006101000a81548160ff02191690831515021790555050505600a165627a7a72305820c5b45051e65409d7ce78267ca9502e68022de2b9807ec1cb8f8d57145c68b8000029",
  "source": "pragma solidity ^0.4.24;\n\n// Import the library 'Roles'\nimport \"./Roles.sol\";\n\n// Define a contract 'DistributorRole' to manage this role - add, remove, check\ncontract DistributorRole {\n\n  // Define 2 events, one for Adding, and other for Removing\n  event DistrubuterAdded(address indexed account);\n  event DistrubuterRemoved(address indexed account);\n  // Define a struct 'distributors' by inheriting from 'Roles' library, struct Role\n Roles.Role private distributors;\n  // In the constructor make the address that deploys this contract the 1st distributor\n  constructor() public {\n    _addDistributor(msg.sender);\n  }\n\n  // Define a modifier that checks to see if msg.sender has the appropriate role\n  modifier onlyDistributor() {\n    require(isDistributor(msg.sender) == true);\n    _;\n  }\n\n  // Define a function 'isDistributor' to check this role\n  function isDistributor(address account) public view returns (bool) {\n  return Roles.has(distributors, account);\n  }\n\n  // Define a function 'addDistributor' that adds this role\n  function addDistributor(address account) public onlyDistributor {\n    _addDistributor(account);\n \n  }\n\n  // Define a function 'renounceDistributor' to renounce this role\n  function renounceDistributor() public {\n    _removeDistributor(msg.sender);\n   \n  }\n\n  // Define an internal function '_addDistributor' to add this role, called by 'addDistributor'\n  function _addDistributor(address account) internal {\n      Roles.add(distributors, account);\n      emit DistrubuterAdded(account);\n  }\n\n  // Define an internal function '_removeDistributor' to remove this role, called by 'removeDistributor'\n  function _removeDistributor(address account) internal {\n      Roles.remove(distributors, account);\n      emit DistrubuterRemoved(account);\n  }\n}",
  "sourcePath": "/home/amr/BlockChain/Supply_chain_Project/nd1309-Project-6b-Example-Template/project-6/contracts/coffeeaccesscontrol/DistributorRole.sol",
  "compiler": {
    "name": "solc",
    "version": "0.4.24+commit.e67f0147.Emscripten.clang"
  },
  "schemaVersion": "2.0.1",
  "updatedAt": "2021-08-08T18:42:29.916Z"
}